{
	"data": {
		"bytecode": {
			"linkReferences": {},
			"object": "6060604052341561000f57600080fd5b5b60008054600160a060020a03191633600160a060020a03161790555b5b60bb8061003b6000396000f300606060405263ffffffff7c010000000000000000000000000000000000000000000000000000000060003504166341c0e1b58114603c575b600080fd5b3415604657600080fd5b604c604e565b005b6000543373ffffffffffffffffffffffffffffffffffffffff90811691161415608c5760005473ffffffffffffffffffffffffffffffffffffffff16ff5b5b5600a165627a7a72305820ee325ea89ca0124d8b1cecd486ca571c5cc9481380e20e5a5fdbc08cf9dce3320029",
			"opcodes": "PUSH1 0x60 PUSH1 0x40 MSTORE CALLVALUE ISZERO PUSH2 0xF JUMPI PUSH1 0x0 DUP1 REVERT JUMPDEST JUMPDEST PUSH1 0x0 DUP1 SLOAD PUSH1 0x1 PUSH1 0xA0 PUSH1 0x2 EXP SUB NOT AND CALLER PUSH1 0x1 PUSH1 0xA0 PUSH1 0x2 EXP SUB AND OR SWAP1 SSTORE JUMPDEST JUMPDEST PUSH1 0xBB DUP1 PUSH2 0x3B PUSH1 0x0 CODECOPY PUSH1 0x0 RETURN STOP PUSH1 0x60 PUSH1 0x40 MSTORE PUSH4 0xFFFFFFFF PUSH29 0x100000000000000000000000000000000000000000000000000000000 PUSH1 0x0 CALLDATALOAD DIV AND PUSH4 0x41C0E1B5 DUP2 EQ PUSH1 0x3C JUMPI JUMPDEST PUSH1 0x0 DUP1 REVERT JUMPDEST CALLVALUE ISZERO PUSH1 0x46 JUMPI PUSH1 0x0 DUP1 REVERT JUMPDEST PUSH1 0x4C PUSH1 0x4E JUMP JUMPDEST STOP JUMPDEST PUSH1 0x0 SLOAD CALLER PUSH20 0xFFFFFFFFFFFFFFFFFFFFFFFFFFFFFFFFFFFFFFFF SWAP1 DUP2 AND SWAP2 AND EQ ISZERO PUSH1 0x8C JUMPI PUSH1 0x0 SLOAD PUSH20 0xFFFFFFFFFFFFFFFFFFFFFFFFFFFFFFFFFFFFFFFF AND SELFDESTRUCT JUMPDEST JUMPDEST JUMP STOP LOG1 PUSH6 0x627A7A723058 KECCAK256 0xee ORIGIN 0x5e 0xa8 SWAP13 LOG0 SLT 0x4d DUP12 0x1c 0xec 0xd4 DUP7 0xca JUMPI 0x1c 0x5c 0xc9 0x48 SGT DUP1 0xe2 0xe GAS 0x5f 0xdb 0xc0 DUP13 0xf9 0xdc 0xe3 ORIGIN STOP 0x29 "
		},
		"gasEstimates": {
			"creation": {
				"codeDepositCost": "37400",
				"executionCost": "20452",
				"totalCost": "57852"
			},
			"external": {
				"kill()": "30546"
			}
		},
		"methodIdentifiers": {
			"kill()": "41c0e1b5"
		}
	},
	"abi": [
		{
			"constant": false,
			"inputs": [],
			"name": "kill",
			"outputs": [],
			"payable": false,
			"type": "function",
			"stateMutability": "nonpayable"
		},
		{
			"inputs": [],
			"payable": false,
			"type": "constructor",
			"stateMutability": "nonpayable"
		}
	]
}