{
	"data": {
		"bytecode": {
			"linkReferences": {},
			"object": "6060604052341561000f57600080fd5b6040516103233803806103238339810160405280805190910190505b5b60008054600160a060020a03191633600160a060020a03161790555b600181805161005b929160200190610063565b505b50610103565b828054600181600116156101000203166002900490600052602060002090601f016020900481019282601f106100a457805160ff19168380011785556100d1565b828001600101855582156100d1579182015b828111156100d15782518255916020019190600101906100b6565b5b506100de9291506100e2565b5090565b61010091905b808211156100de57600081556001016100e8565b5090565b90565b610211806101126000396000f300606060405263ffffffff7c010000000000000000000000000000000000000000000000000000000060003504166341c0e1b58114610048578063cfae32171461005d575b600080fd5b341561005357600080fd5b61005b6100e8565b005b341561006857600080fd5b61007061012a565b60405160208082528190810183818151815260200191508051906020019080838360005b838110156100ad5780820151818401525b602001610094565b50505050905090810190601f1680156100da5780820380516001836020036101000a031916815260200191505b509250505060405180910390f35b6000543373ffffffffffffffffffffffffffffffffffffffff908116911614156101275760005473ffffffffffffffffffffffffffffffffffffffff16ff5b5b565b6101326101d3565b60018054600181600116156101000203166002900480601f0160208091040260200160405190810160405280929190818152602001828054600181600116156101000203166002900480156101c85780601f1061019d576101008083540402835291602001916101c8565b820191906000526020600020905b8154815290600101906020018083116101ab57829003601f168201915b505050505090505b90565b602060405190810160405260008152905600a165627a7a72305820936569ffd0ca6b134213e84e2bc0306f9a85d510067e033a02155d922329694f0029",
			"opcodes": "PUSH1 0x60 PUSH1 0x40 MSTORE CALLVALUE ISZERO PUSH2 0xF JUMPI PUSH1 0x0 DUP1 REVERT JUMPDEST PUSH1 0x40 MLOAD PUSH2 0x323 CODESIZE SUB DUP1 PUSH2 0x323 DUP4 CODECOPY DUP2 ADD PUSH1 0x40 MSTORE DUP1 DUP1 MLOAD SWAP1 SWAP2 ADD SWAP1 POP JUMPDEST JUMPDEST PUSH1 0x0 DUP1 SLOAD PUSH1 0x1 PUSH1 0xA0 PUSH1 0x2 EXP SUB NOT AND CALLER PUSH1 0x1 PUSH1 0xA0 PUSH1 0x2 EXP SUB AND OR SWAP1 SSTORE JUMPDEST PUSH1 0x1 DUP2 DUP1 MLOAD PUSH2 0x5B SWAP3 SWAP2 PUSH1 0x20 ADD SWAP1 PUSH2 0x63 JUMP JUMPDEST POP JUMPDEST POP PUSH2 0x103 JUMP JUMPDEST DUP3 DUP1 SLOAD PUSH1 0x1 DUP2 PUSH1 0x1 AND ISZERO PUSH2 0x100 MUL SUB AND PUSH1 0x2 SWAP1 DIV SWAP1 PUSH1 0x0 MSTORE PUSH1 0x20 PUSH1 0x0 KECCAK256 SWAP1 PUSH1 0x1F ADD PUSH1 0x20 SWAP1 DIV DUP2 ADD SWAP3 DUP3 PUSH1 0x1F LT PUSH2 0xA4 JUMPI DUP1 MLOAD PUSH1 0xFF NOT AND DUP4 DUP1 ADD OR DUP6 SSTORE PUSH2 0xD1 JUMP JUMPDEST DUP3 DUP1 ADD PUSH1 0x1 ADD DUP6 SSTORE DUP3 ISZERO PUSH2 0xD1 JUMPI SWAP2 DUP3 ADD JUMPDEST DUP3 DUP2 GT ISZERO PUSH2 0xD1 JUMPI DUP3 MLOAD DUP3 SSTORE SWAP2 PUSH1 0x20 ADD SWAP2 SWAP1 PUSH1 0x1 ADD SWAP1 PUSH2 0xB6 JUMP JUMPDEST JUMPDEST POP PUSH2 0xDE SWAP3 SWAP2 POP PUSH2 0xE2 JUMP JUMPDEST POP SWAP1 JUMP JUMPDEST PUSH2 0x100 SWAP2 SWAP1 JUMPDEST DUP1 DUP3 GT ISZERO PUSH2 0xDE JUMPI PUSH1 0x0 DUP2 SSTORE PUSH1 0x1 ADD PUSH2 0xE8 JUMP JUMPDEST POP SWAP1 JUMP JUMPDEST SWAP1 JUMP JUMPDEST PUSH2 0x211 DUP1 PUSH2 0x112 PUSH1 0x0 CODECOPY PUSH1 0x0 RETURN STOP PUSH1 0x60 PUSH1 0x40 MSTORE PUSH4 0xFFFFFFFF PUSH29 0x100000000000000000000000000000000000000000000000000000000 PUSH1 0x0 CALLDATALOAD DIV AND PUSH4 0x41C0E1B5 DUP2 EQ PUSH2 0x48 JUMPI DUP1 PUSH4 0xCFAE3217 EQ PUSH2 0x5D JUMPI JUMPDEST PUSH1 0x0 DUP1 REVERT JUMPDEST CALLVALUE ISZERO PUSH2 0x53 JUMPI PUSH1 0x0 DUP1 REVERT JUMPDEST PUSH2 0x5B PUSH2 0xE8 JUMP JUMPDEST STOP JUMPDEST CALLVALUE ISZERO PUSH2 0x68 JUMPI PUSH1 0x0 DUP1 REVERT JUMPDEST PUSH2 0x70 PUSH2 0x12A JUMP JUMPDEST PUSH1 0x40 MLOAD PUSH1 0x20 DUP1 DUP3 MSTORE DUP2 SWAP1 DUP2 ADD DUP4 DUP2 DUP2 MLOAD DUP2 MSTORE PUSH1 0x20 ADD SWAP2 POP DUP1 MLOAD SWAP1 PUSH1 0x20 ADD SWAP1 DUP1 DUP4 DUP4 PUSH1 0x0 JUMPDEST DUP4 DUP2 LT ISZERO PUSH2 0xAD JUMPI DUP1 DUP3 ADD MLOAD DUP2 DUP5 ADD MSTORE JUMPDEST PUSH1 0x20 ADD PUSH2 0x94 JUMP JUMPDEST POP POP POP POP SWAP1 POP SWAP1 DUP2 ADD SWAP1 PUSH1 0x1F AND DUP1 ISZERO PUSH2 0xDA JUMPI DUP1 DUP3 SUB DUP1 MLOAD PUSH1 0x1 DUP4 PUSH1 0x20 SUB PUSH2 0x100 EXP SUB NOT AND DUP2 MSTORE PUSH1 0x20 ADD SWAP2 POP JUMPDEST POP SWAP3 POP POP POP PUSH1 0x40 MLOAD DUP1 SWAP2 SUB SWAP1 RETURN JUMPDEST PUSH1 0x0 SLOAD CALLER PUSH20 0xFFFFFFFFFFFFFFFFFFFFFFFFFFFFFFFFFFFFFFFF SWAP1 DUP2 AND SWAP2 AND EQ ISZERO PUSH2 0x127 JUMPI PUSH1 0x0 SLOAD PUSH20 0xFFFFFFFFFFFFFFFFFFFFFFFFFFFFFFFFFFFFFFFF AND SELFDESTRUCT JUMPDEST JUMPDEST JUMP JUMPDEST PUSH2 0x132 PUSH2 0x1D3 JUMP JUMPDEST PUSH1 0x1 DUP1 SLOAD PUSH1 0x1 DUP2 PUSH1 0x1 AND ISZERO PUSH2 0x100 MUL SUB AND PUSH1 0x2 SWAP1 DIV DUP1 PUSH1 0x1F ADD PUSH1 0x20 DUP1 SWAP2 DIV MUL PUSH1 0x20 ADD PUSH1 0x40 MLOAD SWAP1 DUP2 ADD PUSH1 0x40 MSTORE DUP1 SWAP3 SWAP2 SWAP1 DUP2 DUP2 MSTORE PUSH1 0x20 ADD DUP3 DUP1 SLOAD PUSH1 0x1 DUP2 PUSH1 0x1 AND ISZERO PUSH2 0x100 MUL SUB AND PUSH1 0x2 SWAP1 DIV DUP1 ISZERO PUSH2 0x1C8 JUMPI DUP1 PUSH1 0x1F LT PUSH2 0x19D JUMPI PUSH2 0x100 DUP1 DUP4 SLOAD DIV MUL DUP4 MSTORE SWAP2 PUSH1 0x20 ADD SWAP2 PUSH2 0x1C8 JUMP JUMPDEST DUP3 ADD SWAP2 SWAP1 PUSH1 0x0 MSTORE PUSH1 0x20 PUSH1 0x0 KECCAK256 SWAP1 JUMPDEST DUP2 SLOAD DUP2 MSTORE SWAP1 PUSH1 0x1 ADD SWAP1 PUSH1 0x20 ADD DUP1 DUP4 GT PUSH2 0x1AB JUMPI DUP3 SWAP1 SUB PUSH1 0x1F AND DUP3 ADD SWAP2 JUMPDEST POP POP POP POP POP SWAP1 POP JUMPDEST SWAP1 JUMP JUMPDEST PUSH1 0x20 PUSH1 0x40 MLOAD SWAP1 DUP2 ADD PUSH1 0x40 MSTORE PUSH1 0x0 DUP2 MSTORE SWAP1 JUMP STOP LOG1 PUSH6 0x627A7A723058 KECCAK256 SWAP4 PUSH6 0x69FFD0CA6B13 TIMESTAMP SGT 0xe8 0x4e 0x2b 0xc0 ADDRESS PUSH16 0x9A85D510067E033A02155D922329694F STOP 0x29 "
		},
		"gasEstimates": {
			"creation": {
				"codeDepositCost": "105800",
				"executionCost": "infinite",
				"totalCost": "infinite"
			},
			"external": {
				"greet()": "infinite",
				"kill()": "30546"
			}
		},
		"methodIdentifiers": {
			"greet()": "cfae3217",
			"kill()": "41c0e1b5"
		}
	},
	"abi": [
		{
			"constant": false,
			"inputs": [],
			"name": "kill",
			"outputs": [],
			"payable": false,
			"type": "function",
			"stateMutability": "nonpayable"
		},
		{
			"constant": true,
			"inputs": [],
			"name": "greet",
			"outputs": [
				{
					"name": "",
					"type": "string"
				}
			],
			"payable": false,
			"type": "function",
			"stateMutability": "view"
		},
		{
			"inputs": [
				{
					"name": "_greeting",
					"type": "string"
				}
			],
			"payable": false,
			"type": "constructor",
			"stateMutability": "nonpayable"
		}
	]
}