{
	"data": {
		"bytecode": {
			"linkReferences": {},
			"object": "6060604052341561000f57600080fd5b5b60008054600160a060020a03191633600160a060020a03161790555b5b60bb8061003b6000396000f300606060405263ffffffff7c010000000000000000000000000000000000000000000000000000000060003504166341c0e1b58114603c575b600080fd5b3415604657600080fd5b604c604e565b005b6000543373ffffffffffffffffffffffffffffffffffffffff90811691161415608c5760005473ffffffffffffffffffffffffffffffffffffffff16ff5b5b5600a165627a7a7230582046a04e8df6dbb6df7e569bcc040ba577a64628c5425402d9b891348d0b5487360029",
			"opcodes": "PUSH1 0x60 PUSH1 0x40 MSTORE CALLVALUE ISZERO PUSH2 0xF JUMPI PUSH1 0x0 DUP1 REVERT JUMPDEST JUMPDEST PUSH1 0x0 DUP1 SLOAD PUSH1 0x1 PUSH1 0xA0 PUSH1 0x2 EXP SUB NOT AND CALLER PUSH1 0x1 PUSH1 0xA0 PUSH1 0x2 EXP SUB AND OR SWAP1 SSTORE JUMPDEST JUMPDEST PUSH1 0xBB DUP1 PUSH2 0x3B PUSH1 0x0 CODECOPY PUSH1 0x0 RETURN STOP PUSH1 0x60 PUSH1 0x40 MSTORE PUSH4 0xFFFFFFFF PUSH29 0x100000000000000000000000000000000000000000000000000000000 PUSH1 0x0 CALLDATALOAD DIV AND PUSH4 0x41C0E1B5 DUP2 EQ PUSH1 0x3C JUMPI JUMPDEST PUSH1 0x0 DUP1 REVERT JUMPDEST CALLVALUE ISZERO PUSH1 0x46 JUMPI PUSH1 0x0 DUP1 REVERT JUMPDEST PUSH1 0x4C PUSH1 0x4E JUMP JUMPDEST STOP JUMPDEST PUSH1 0x0 SLOAD CALLER PUSH20 0xFFFFFFFFFFFFFFFFFFFFFFFFFFFFFFFFFFFFFFFF SWAP1 DUP2 AND SWAP2 AND EQ ISZERO PUSH1 0x8C JUMPI PUSH1 0x0 SLOAD PUSH20 0xFFFFFFFFFFFFFFFFFFFFFFFFFFFFFFFFFFFFFFFF AND SELFDESTRUCT JUMPDEST JUMPDEST JUMP STOP LOG1 PUSH6 0x627A7A723058 KECCAK256 0x46 LOG0 0x4e DUP14 0xf6 0xdb 0xb6 0xdf PUSH31 0x569BCC040BA577A64628C5425402D9B891348D0B5487360029000000000000 "
		},
		"gasEstimates": {
			"creation": {
				"codeDepositCost": "37400",
				"executionCost": "20452",
				"totalCost": "57852"
			},
			"external": {
				"kill()": "30546"
			}
		},
		"methodIdentifiers": {
			"kill()": "41c0e1b5"
		}
	},
	"abi": [
		{
			"constant": false,
			"inputs": [],
			"name": "kill",
			"outputs": [],
			"payable": false,
			"type": "function",
			"stateMutability": "nonpayable"
		},
		{
			"inputs": [],
			"payable": false,
			"type": "constructor",
			"stateMutability": "nonpayable"
		}
	]
}